:020000040800F2
:1000000000280020490800089908000899080008FD
:1000100099080008990800089908000800000000E5
:100020000000000000000000000000009908000827
:1000300099080008000000009908000899080008C5
:10004000990800089908000899080008990800080C
:100050009908000899080008050300089908000895
:1000600099080008990800089908000899080008EC
:1000700099080008990800089908000899080008DC
:1000800099080008990800089908000899080008CC
:1000900099080008990800089908000899080008BC
:1000A00099080008990800089908000899080008AC
:1000B000990800089908000899080008990800089C
:1000C000990800089908000899080008990800088C
:1000D000990800089908000899080008990800087C
:1000E0009908000899080008000000009908000815
:1000F000990800089908000899080008990800085C
:10010000990800089908000899080008990800084B
:10011000990800089908000899080008990800083B
:10012000990800089908000899080008990800082B
:1001300010B5054C237833B9044B13B10448AFF321
:1001400000800123237010BD00000020000000008B
:10015000E408000808B5034B1BB103490348AFF39B
:10016000008008BD0000000004000020E408000832
:1001700090B484B000AF0446084611461A462346A0
:10018000FB800346BB800B467B8013463B80BB88CD
:100190007B8100233B81BB88072B04D97B89083BEB
:1001A0007B8101233B81FB88012B0DD1274B1B68F1
:1001B000264A43F0040313603B899B0003F180430C
:1001C00003F58433FB6020E0FB88022B0DD11F4B2D
:1001D0001B681E4A43F0080313603B899B0003F130
:1001E000804303F58633FB600FE0FB88032B0CD1C3
:1001F000164B1B68154A43F0100313603B899B00A4
:1002000003F1804303F58833FB60FB681B687A8940
:1002100092000F2101FA02F2D2431A40FB681A60E1
:10022000FB681B6879887A899200914038887A89BE
:100230009200023200FA02F20A431A43FB681A6083
:1002400000BF1037BD4690BC704700BF1810024079
:1002500080B485B000AF0346FB800B46BB801346DD
:100260007B800323BB60FB88012B07D1BB689B000D
:1002700003F1804303F58433FB6014E0FB88022B19
:1002800007D1BB689B0003F1804303F58633FB6015
:1002900009E0FB88032B06D1BB689B0003F1804378
:1002A00003F58833FB607B88002B09D0FB681B6853
:1002B0007988BA8801FA02F21A43FB681A6009E0E9
:1002C000FB681B68BA88012101FA02F2D2431A4086
:1002D000FB681A6000BF1437BD4680BC704780B50C
:1002E00082B000AF03460A46FB801346BB80B98844
:1002F000F88800230322FFF73BFF00BF0837BD4605
:1003000080BD000080B500AF054B5B69044A43F037
:1003100001035361322000F053FA00BF80BD00BFDB
:100320000004014080B584B000AF03460A46FB716B
:100330001346BB71FB79FB7308E0FB7B9BB219464C
:100340000120FFF7CCFFFB7B0133FB73FA7BBB790A
:100350009A42F2D300BF00BF1037BD4680BD80B5C2
:1003600082B000AF0346FB71FB799BB21A460821AD
:100370000120FFF76DFF00BF0837BD4680BD80B587
:1003800082B000AF0346FB71FB799BB21A4609218C
:100390000120FFF75DFF00BF0837BD4680BD80B577
:1003A00082B000AF0346FB71FB799BB21A460A216B
:1003B0000120FFF74DFF00BF0837BD4680BD00009C
:1003C00080B582B000AF0346FB710B210420FFF71C
:1003D000A9FF0120FFF7C3FF0020FFF7D0FF0A208D
:1003E00000F0D8F90120FFF7DAFF052000F0D2F97C
:1003F0001B4BDA681A494FF60F731340CB60184B4A
:10040000DA68FB7903F0F00315491343CB600A2047
:1004100000F0C0F90020FFF7C2FF142000F0BAF985
:100420000120FFF7BCFF052000F0B4F90C4BDA689F
:100430000B494FF60F731340CB60094BDA68FB7919
:100440001B01DBB206491343CB600A2000F0A2F97E
:100450000020FFF7A4FF00BF0837BD4680BD00BFE6
:100460000008014080B582B000AF0346FB710B214C
:100470000420FFF757FF0020FFF771FF0020FFF770
:100480007EFF0A2000F086F90120FFF788FF052093
:1004900000F080F91B4BDA681A494FF60F731340CE
:1004A000CB60184BDA68FB7903F0F003154913436E
:1004B000CB600A2000F06EF90020FFF770FF1420D7
:1004C00000F068F90120FFF76AFF052000F062F9EB
:1004D0000C4BDA680B494FF60F731340CB60094B96
:1004E000DA68FB791B01DBB206491343CB600A20B3
:1004F00000F050F90020FFF752FF00BF0837BD465B
:1005000080BD00BF0008014080B500AF0B21042072
:10051000FFF708FF142000F053F90020FFF71FFF3A
:100520000020FFF72CFF0A2000F034F90120FFF72C
:1005300036FF052000F02EF94D4BDA684C494FF696
:100540000F731340CB604A4BDB68494A43F03003DA
:10055000D3600A2000F01EF90020FFF720FF0A20D8
:1005600000F02EF90020FFF7FAFE0020FFF707FF4A
:100570000A2000F00FF90120FFF711FF052000F01D
:1005800009F93B4BDA683A494FF60F731340CB60D9
:10059000374BDB68364A43F03003D3600A2000F063
:1005A000F9F80020FFF7FBFE012000F009F9002018
:1005B000FFF7D5FE0020FFF7E2FE0A2000F0EAF880
:1005C0000120FFF7ECFE052000F0E4F8284BDA6884
:1005D00027494FF60F731340CB60254BDB68244A45
:1005E00043F03003D3600A2000F0D4F80020FFF776
:1005F000D6FE012000F0E4F80020FFF7B0FE002056
:10060000FFF7BDFE0A2000F0C5F80120FFF7C7FE86
:10061000052000F0BFF8164BDA6815494FF60F7346
:100620001340CB60124BDB68114A43F02003D360C8
:100630000A2000F0AFF80020FFF7B1FE2C20FFF7F2
:1006400011FF052000F0BCF80C20FFF70BFF052080
:1006500000F0B6F80120FFF705FF052000F0B0F824
:100660000220FFF7FFFE052000F0AAF800BF80BDC2
:100670000008014080B584B000AF78600023FB60C3
:100680000CE0FB687A6813441B781846FFF798FE65
:10069000FB680133FB60642000F07CF8FB687A683B
:1006A00013441B78002BECD100BF00BF1037BD46B0
:1006B00080BD80B584B000AF03463A60FB710B4645
:1006C000BB710023FB81FB79012B02D10023FB814D
:1006D00004E0FB79022B01D14023FB81FB89DAB2D4
:1006E000BB791344DBB2803BDBB21846FFF7BAFE9E
:1006F000642000F04FF83868FFF7BCFF00BF1037E8
:10070000BD4680BD80B400AF204B1B681F4A43F438
:100710008033136000BF1D4B1B6803F40033002BB4
:10072000F9D01A4B5B68194A43F00103536000BFCC
:10073000164B5B6803F00403002BF9D0134B134AEC
:100740005B685360114B114A5B6853600F4B9B69A8
:100750000E4A43F4006393610D4B4FF6FE72DA626A
:100760000B4B07229A620A4B1B68094A43F00103AC
:10077000136000BF064B1B6903F00103002BF9D087
:1007800000BF00BFBD4680BC704700BF00100240E4
:10079000002C014080B483B000AF0346FB80074BC0
:1007A00000225A6200BF054B5A6AFB889A42FAD36C
:1007B00000BF00BF0C37BD4680BC7047002C014015
:1007C00080B584B000AF0346FB800023FB8106E0C8
:1007D0004FF47A70FFF7DEFFFB890133FB81FA8962
:1007E000FB889A42F4D300BF00BF1037BD4680BDDE
:1007F00080B582B000AFFFF785FF002303220D21F3
:100800000320FFF7B5FC01220D210320FFF720FD97
:10081000FFF77AFE094A3B1D126811461980023320
:10082000120C1A70064A00210120FFF742FF054A08
:1008300006210220FFF73DFFFEE700BF1409000874
:10084000FC0800080C0900080D488546AFF300803D
:100850000C480D490D4A002302E0D458C45004331B
:10086000C4188C42F9D30A4A0A4C002301E01360F1
:100870000432A242FBD300F011F8FFF7B9FFFEE704
:1008800000280020000000200000002020090008AF
:10089000000000201C000020FEE7000070B50026CC
:1008A0000C4D0D4C641BA410A64209D100F01AF89F
:1008B00000260A4D0A4C641BA410A64205D170BD47
:1008C00055F8043B98470136EEE755F8043B984746
:1008D0000136F2E71809000818090008180900088D
:1008E0001C090008F8B500BFF8BC08BC9E4670475C
:0C08F000F8B500BFF8BC08BC9E4670477D
:1008FC0057656C636F6D6520746F207468650000BC
:0C090C00576565570000000061620000A4
:04091800550100087D
:04091C00310100089D
:04000005080008499E
:00000001FF
