:020000040800F2
:100000000028002051060008A1060008A1060008EB
:10001000A1060008A1060008A106000800000000D3
:10002000000000000000000000000000A106000821
:10003000A106000800000000A1060008A1060008B3
:10004000A1060008A1060008A1060008A1060008F4
:10005000A1060008A1060008F1040008A106000896
:10006000A1060008A1060008A1060008A1060008D4
:10007000A1060008A1060008A1060008A1060008C4
:10008000A1060008A1060008A1060008A1060008B4
:10009000A1060008A1060008A1060008A1060008A4
:1000A000A1060008A1060008A1060008A106000894
:1000B000A1060008A1060008A1060008A106000884
:1000C000A1060008A1060008A1060008A106000874
:1000D000A1060008A1060008A1060008A106000864
:1000E000A1060008A106000800000000A106000803
:1000F000A1060008A1060008A1060008A106000844
:10010000A1060008A1060008A1060008A106000833
:10011000A1060008A1060008A1060008A106000823
:10012000A1060008A1060008A1060008A106000813
:1001300010B5054C237833B9044B13B10448AFF321
:1001400000800123237010BD00000020000000008B
:10015000EC06000808B5034B1BB103490348AFF395
:10016000008008BD0000000004000020EC0600082C
:1001700090B484B000AF0446084611461A462346A0
:10018000FB800346BB800B467B8013463B80BB88CD
:100190007B8100233B81BB88072B04D97B89083BEB
:1001A0007B8101233B81FB88012B0DD1274B1B68F1
:1001B000264A43F0040313603B899B0003F180430C
:1001C00003F58433FB6020E0FB88022B0DD11F4B2D
:1001D0001B681E4A43F0080313603B899B0003F130
:1001E000804303F58633FB600FE0FB88032B0CD1C3
:1001F000164B1B68154A43F0100313603B899B00A4
:1002000003F1804303F58833FB60FB681B687A8940
:1002100092000F2101FA02F2D2431A40FB681A60E1
:10022000FB681B6879887A899200914038887A89BE
:100230009200023200FA02F20A431A43FB681A6083
:1002400000BF1037BD4690BC704700BF1810024079
:1002500080B485B000AF0346FB800B46BB801346DD
:100260007B800323BB60FB88012B07D1BB689B000D
:1002700003F1804303F58433FB6014E0FB88022B19
:1002800007D1BB689B0003F1804303F58633FB6015
:1002900009E0FB88032B06D1BB689B0003F1804378
:1002A00003F58833FB607B88002B09D0FB681B6853
:1002B0007988BA8801FA02F21A43FB681A6009E0E9
:1002C000FB681B68BA88012101FA02F2D2431A4086
:1002D000FB681A6000BF1437BD4680BC7047000041
:1002E00080B582B000AF03460A46FB711346BB805F
:1002F0001C4B9B691B4A43F001039361FB79012B63
:100300002CD1184BDB69174A43F40013D361032344
:10031000032208210220FFF72BFF032303220921D8
:100320000220FFF725FF104B1B680F4A43F40043E0
:1003300013600D4B1B680C4A23F4004313600A4BF7
:1003400008225A60084ABB88D361074B09221A6207
:10035000054B1B68044A43F00103136000BF0837D4
:10036000BD4680BD001002400054004080B483B000
:1003700000AF0346FB71FB79012B0CD1084B1B68C6
:10038000074A43F48073136000BF054B5B6903F0B9
:100390000103002BF9D000BF0C37BD4680BC70476D
:1003A0000054004080B485B000AF0346FB710B469B
:1003B000BB7113467B71FB79012B21D1BA797B7913
:1003C0001343DAB2114B1A6100BF104B5B6903F0A3
:1003D0000203002BF9D00BE00C4B5B69FB600B4B6D
:1003E0009B69FB60094B5B6903F00203002B06D09D
:1003F000064B5B6903F00203002BEDD100E000BF68
:1004000000BF1437BD4680BC704700BF0054004099
:1004100080B483B000AF03460A46FB711346BB713C
:10042000FB79012B10D100BF0A4B5B6903F08003FD
:10043000002BF9D0074ABB79136100BF054B5B69FC
:1004400003F08003002BF9D000BF0C37BD4680BC01
:10045000704700BF0054004080B485B000AF034631
:10046000FB71FB79012B0BD1084B5B69FB60074BE0
:100470009B69FB60054B1B68044A43F400731360DF
:1004800000BF1437BD4680BC704700BF0054004019
:1004900080B584B000AF03463A60FB710B46BB7178
:1004A0000023FB60FB791846FFF760FFB979FB7901
:1004B00000221846FFF776FF0BE0FB683A6813440A
:1004C0001A78FB7911461846FFF7A2FFFB68013343
:1004D000FB60FB683A6813441B78002BEDD1FB7975
:1004E0001846FFF7B9FF00BF1037BD4680BD0000BA
:1004F00080B500AF054B5B69044A43F001035361CB
:10050000322000F063F800BF80BD00BF000401404E
:1005100080B400AF204B1B681F4A43F48033136044
:1005200000BF1D4B1B6803F40033002BF9D01A4B9E
:100530005B68194A43F00103536000BF164B5B68C8
:1005400003F00403002BF9D0134B134A5B6853608C
:10055000114B114A5B6853600F4B9B690E4A43F481
:10056000006393610D4B4FF6FE72DA620B4B07226C
:100570009A620A4B1B68094A43F00103136000BFEB
:10058000064B1B6903F00103002BF9D000BF00BF2D
:10059000BD4680BC704700BF00100240002C0140E7
:1005A00080B483B000AF0346FB80074B00225A6241
:1005B00000BF054B5A6AFB889A42FAD300BF00BFBE
:1005C0000C37BD4680BC7047002C014080B584B01C
:1005D00000AF0346FB800023FB8106E04FF47A70F6
:1005E000FFF7DEFFFB890133FB81FA89FB889A4222
:1005F000F4D300BF00BF1037BD4680BD80B582B0C8
:1006000000AFFFF785FF002303220D210320FFF732
:10061000AFFD01220D210320FFF71AFEB4210120B6
:10062000FFF75EFE094A3B1D12681146198002332E
:10063000120C1A703B1D1A4678210120FFF728FF83
:100640004FF47A70FFF7C2FFF4E700BF0407000819
:100650000D488546AFF300800C480D490D4A002334
:1006600002E0D458C4500433C4188C42F9D30A4A67
:100670000A4C002301E013600432A242FBD300F0D5
:1006800011F8FFF7BBFFFEE7002800200000002064
:100690000000002010070008000000201C000020BF
:1006A000FEE7000070B500260C4D0D4C641BA41035
:1006B000A64209D100F01AF800260A4D0A4C641B24
:1006C000A410A64205D170BD55F8043B98470136E9
:1006D000EEE755F8043B98470136F2E708070008B3
:1006E00008070008080700080C070008F8B500BF55
:1006F000F8BC08BC9E467047F8B500BFF8BC08BC03
:040700009E4670475A
:04070400616200002E
:04070800550100088F
:04070C0031010008AF
:040000050800065198
:00000001FF
