:020000040800F2
:10000000002800208D0B0008DD0B0008DD0B000828
:10001000DD0B0008DD0B0008DD0B00080000000010
:10002000000000000000000000000000DD0B0008E0
:10003000DD0B000800000000DD0B0008DD0B0008F0
:10004000DD0B0008DD0B0008DD0B0008DD0B0008F0
:10005000DD0B0008DD0B0008CD040008DD0B0008F7
:10006000DD0B0008DD0B0008DD0B0008DD0B0008D0
:10007000DD0B0008DD0B0008DD0B0008DD0B0008C0
:10008000DD0B0008DD0B00085D0B0008DD0B000830
:10009000DD0B0008DD0B0008DD0B0008DD0B0008A0
:1000A000DD0B0008DD0B0008DD0B0008DD0B000890
:1000B000DD0B0008DD0B0008DD0B0008DD0B000880
:1000C000DD0B0008DD0B0008DD0B0008DD0B000870
:1000D000DD0B0008DD0B0008DD0B0008DD0B000860
:1000E000DD0B0008DD0B000800000000DD0B000840
:1000F000DD0B0008DD0B0008DD0B0008DD0B000840
:10010000DD0B0008DD0B0008DD0B0008DD0B00082F
:10011000DD0B0008DD0B0008DD0B0008DD0B00081F
:10012000DD0B0008DD0B0008DD0B0008DD0B00080F
:1001300010B5054C237833B9044B13B10448AFF321
:1001400000800123237010BD00000020000000008B
:10015000280C000808B5034B1BB103490348AFF353
:10016000008008BD0000000004000020280C0008EA
:1001700080B584B000AF0346FB710B46BB801346CD
:100180007B800023BB73B7F90430012B08D1B7F98A
:100190000230072B21DC0123BB737B88FB731CE03F
:1001A000B7F90430022B0AD1B7F90230012B14DC65
:1001B0000123BB737B88DBB20833FB730DE0B7F917
:1001C0000430032B09D1B7F90230052B05DC0123DC
:1001D000BB737B88DBB20A33FB73BB7B002B52D033
:1001E000B88879880023002200F0A6F8FB79012B5B
:1001F00023D1274B9B69264A43F4007343F0010344
:100200009361244B00229A60224AFB7B5363214B6B
:100210009B68204A43F001039360642000F00CFCCB
:100220001C4B9B681B4A43F001039360194B9B686E
:10023000184A43F00203936025E0FB79022B22D198
:10024000134B9B69124A43F4806343F001039361AB
:10025000114B00229A60104AFB7B53630E4B9B6844
:100260000D4A43F001039360642000F0E5FB0A4B64
:100270009B68094A43F001039360074B9B68064A59
:1002800043F002039360BB7B18461037BD4680BD28
:1002900000100240002401400028014080B485B0D5
:1002A00000AF0346FB710B46BB8013467B800023E7
:1002B000FB73FB79012B08D10C4B1B6803F0020385
:1002C000002B0DD00123FB730AE0FB79022B07D131
:1002D000074B1B6803F00203002B01D00123FB73C3
:1002E000FB7B18461437BD4680BC70470024014094
:1002F0000028014080B485B000AF0346FB710B4677
:10030000BB8013467B800023FB60FB79012B03D16C
:10031000074BDB6CFB6005E0FB79022B02D1054B40
:10032000DB6CFB60FB6818461437BD4680BC704729
:10033000002401400028014090B484B000AF04467E
:10034000084611461A462346FB800346BB800B46EF
:100350007B8013463B80BB887B8100233B81BB882D
:10036000072B04D97B89083B7B8101233B81FB88D8
:10037000012B0DD1274B1B68264A43F00403136061
:100380003B899B0003F1804303F58433FB6020E04D
:10039000FB88022B0DD11F4B1B681E4A43F008033C
:1003A00013603B899B0003F1804303F58633FB60B8
:1003B0000FE0FB88032B0CD1164B1B68154A43F04A
:1003C000100313603B899B0003F1804303F58833DE
:1003D000FB60FB681B687A8992000F2101FA02F228
:1003E000D2431A40FB681A60FB681B6879887A89D7
:1003F0009200914038887A899200023200FA02F223
:100400000A431A43FB681A6000BF1037BD4690BC10
:10041000704700BF1810024080B485B000AF03469B
:10042000FB800B46BB8013467B800323BB60FB88AD
:10043000012B07D1BB689B0003F1804303F5843394
:10044000FB6014E0FB88022B07D1BB689B0003F123
:10045000804303F58633FB6009E0FB88032B06D15C
:10046000BB689B0003F1804303F58833FB607B8806
:10047000002B09D0FB681B687988BA8801FA02F260
:100480001A43FB681A6009E0FB681B68BA880121FF
:1004900001FA02F2D2431A40FB681A6000BF143717
:1004A000BD4680BC704780B582B000AF03460A46A7
:1004B000FB801346BB80B988F88800230322FFF72E
:1004C0003BFF00BF0837BD4680BD000080B500AFD0
:1004D000054B5B69044A43F001035361322000F08D
:1004E000ABFA00BF80BD00BF0004014080B584B0FE
:1004F00000AF03460A46FB711346BB71FB79FB73E1
:1005000008E0FB7B9BB219460120FFF7CCFFFB7B89
:100510000133FB73FA7BBB799A42F2D300BF00BF71
:100520001037BD4680BD80B582B000AF0346FB7179
:10053000FB799BB21A4608210120FFF76DFF00BF2F
:100540000837BD4680BD80B582B000AF0346FB7161
:10055000FB799BB21A4609210120FFF75DFF00BF1E
:100560000837BD4680BD80B582B000AF0346FB7141
:10057000FB799BB21A460A210120FFF74DFF00BF0D
:100580000837BD4680BD000080B582B000AF03468D
:10059000FB710B210420FFF7A9FF0120FFF7C3FF28
:1005A0000020FFF7D0FF0A2000F030FA0120FFF70B
:1005B000DAFF052000F02AFA1B4BDA681A494FF6D9
:1005C0000F731340CB60184BDA68FB7903F0F0032C
:1005D00015491343CB600A2000F018FA0020FFF7FA
:1005E000C2FF142000F012FA0120FFF7BCFF052023
:1005F00000F00CFA0C4BDA680B494FF60F731340FE
:10060000CB60094BDA68FB791B01DBB20649134367
:10061000CB600A2000F0FAF90020FFF7A4FF00BF2A
:100620000837BD4680BD00BF0008014080B582B0DC
:1006300000AF0346FB710B210420FFF757FF00209A
:10064000FFF771FF0020FFF77EFF0A2000F0DEF9C0
:100650000120FFF788FF052000F0D8F91B4BDA686E
:100660001A494FF60F731340CB60184BDA68FB79C9
:1006700003F0F00315491343CB600A2000F0C6F9DC
:100680000020FFF770FF142000F0C0F90120FFF7F1
:100690006AFF052000F0BAF90C4BDA680B494FF6F7
:1006A0000F731340CB60094BDA68FB791B01DBB297
:1006B00006491343CB600A2000F0A8F90020FFF799
:1006C00052FF00BF0837BD4680BD00BF0008014093
:1006D00080B500AF0B210420FFF708FF142000F0C5
:1006E000ABF90020FFF71FFF0020FFF72CFF0A20C7
:1006F00000F08CF90120FFF736FF052000F086F9A5
:100700004D4BDA684C494FF60F731340CB604A4BA0
:10071000DB68494A43F03003D3600A2000F076F9E1
:100720000020FFF720FF0A2000F086F90020FFF7E5
:10073000FAFE0020FFF707FF0A2000F067F901200A
:10074000FFF711FF052000F061F93B4BDA683A49E9
:100750004FF60F731340CB60374BDB68364A43F0DC
:100760003003D3600A2000F051F90020FFF7FBFEB0
:10077000012000F061F90020FFF7D5FE0020FFF70F
:10078000E2FE0A2000F042F90120FFF7ECFE05200E
:1007900000F03CF9284BDA6827494FF60F731340F5
:1007A000CB60254BDB68244A43F03003D3600A203A
:1007B00000F02CF90020FFF7D6FE012000F03CF9F4
:1007C0000020FFF7B0FE0020FFF7BDFE0A2000F07A
:1007D0001DF90120FFF7C7FE052000F017F9164BA1
:1007E000DA6815494FF60F731340CB60124BDB6884
:1007F000114A43F02003D3600A2000F007F90020DB
:10080000FFF7B1FE2C20FFF711FF052000F014F9CF
:100810000C20FFF70BFF052000F00EF90120FFF779
:1008200005FF052000F008F90220FFF7FFFE052074
:1008300000F002F900BF80BD0008014080B584B01F
:1008400000AF78600023FB600CE0FB687A6813441B
:100850001B781846FFF798FEFB680133FB606420A5
:1008600000F0D4F8FB687A6813441B78002BECD1B5
:1008700000BF00BF1037BD4680BD80B584B000AF5B
:1008800003463A60FB710B46BB710023FB81FB7989
:10089000012B02D10023FB8104E0FB79022B01D163
:1008A0004023FB81FB89DAB2BB791344DBB2803B86
:1008B000DBB21846FFF7BAFE642000F0A7F83868EC
:1008C000FFF7BCFF00BF1037BD4680BD80B48FB0BE
:1008D00000AF7860396000237B630A23FB6200234A
:1008E0003B631BE07B68FA6A93FBF2F2F96A01FB57
:1008F00002F29B1ADBB23033D9B207F10C027B6BE8
:1009000013440A461A707B681B4A82FB031292103A
:10091000DB17D31A7B607B6B01337B637A68FB6ADE
:100920009A42DFDA7B68DBB23033D9B207F10C02CE
:100930007B6B13440A461A707B6B3B630EE07A6B49
:100940003B6BD31A1A463B68134407F10C013A6B10
:100950000A4412781A703B6B013B3B633B6B002BE4
:10096000EDDA7B6B01333A68134400221A7000BF42
:100970003C37BD4680BC70476766666680B400AF92
:10098000204B1B681F4A43F48033136000BF1D4B8C
:100990001B6803F40033002BF9D01A4B5B68194A2B
:1009A00043F00103536000BF164B5B6803F0040380
:1009B000002BF9D0134B134A5B685360114B114A5B
:1009C0005B6853600F4B9B690E4A43F4006393616D
:1009D0000D4B4FF6FE72DA620B4B07229A620A4BFE
:1009E0001B68094A43F00103136000BF064B1B69F3
:1009F00003F00103002BF9D000BF00BFBD4680BC4F
:100A0000704700BF00100240002C014080B483B04A
:100A100000AF0346FB80074B00225A6200BF054B24
:100A20005A6AFB889A42FAD300BF00BF0C37BD4612
:100A300080BC7047002C014080B584B000AF0346F5
:100A4000FB800023FB8106E04FF47A70FFF7DEFFA6
:100A5000FB890133FB81FA89FB889A42F4D300BFFA
:100A600000BF1037BD4680BD80B483B000AF0346E1
:100A7000FB7197F90730002B0BDBFB7903F01F02AA
:100A8000064997F907305B09012000FA02F241F8A4
:100A9000232000BF0C37BD4680BC704700E100E05A
:100AA00080B500AFFFF76AFF002303220D2103206A
:100AB000FFF742FC01220D210320FFF7ADFCFFF7F9
:100AC00007FE002201210120FFF752FB204B5B684B
:100AD0001F4A43F4000353601D4B40F6B8325A627C
:100AE0001B4B4FF47A729A62194B5B68184A43F0B9
:100AF0004003536072B600BF1220FFF7B5FF62B625
:100B000000BF4FF4FA70FFF797FF00220121012088
:100B1000FFF7C4FB0346002BF3D000220121012084
:100B2000FFF7E8FB03460B4A13600A4B1B680A49B0
:100B30001846FFF7CBFE0120FFF778FD0520FFF7F1
:100B40007BFF054A00210120FFF797FED9E700BF90
:100B500000240140300000201C00002080B500AFC0
:100B6000094B1B68084A23F001031360064B5B68BE
:100B7000054A23F04003536000220D210320FFF7B4
:100B80004BFC00BF80BD00BF002401400D488546DE
:100B9000AFF300800C480D490D4A002302E0D45801
:100BA000C4500433C4188C42F9D30A4A0A4C0023B7
:100BB00001E013600432A242FBD300F011F8FFF70A
:100BC0006FFFFEE70028002000000020000000204A
:100BD000480C00080000002034000020FEE7000060
:100BE00070B500260C4D0D4C641BA410A64209D113
:100BF00000F01AF800260A4D0A4C641BA410A64205
:100C000005D170BD55F8043B98470136EEE755F81D
:100C1000043B98470136F2E7400C0008400C0008FE
:100C2000400C0008440C0008F8B500BFF8BC08BC34
:100C30009E467047F8B500BFF8BC08BC9E4670479A
:040C40005501000852
:040C44003101000872
:0400000508000B8D57
:00000001FF
