:020000040800F2
:1000000000280020B50600080507000805070008BD
:1000100005070008050700080507000800000000A4
:1000200000000000000000000000000005070008BC
:100030000507000800000000050700080507000884
:100040000507000805070008050700080507000860
:100050000507000805070008050300080507000854
:100060000507000805070008050700080507000840
:100070000507000805070008050700080507000830
:100080000507000805070008050700080507000820
:100090000507000805070008050700080507000810
:1000A0000507000805070008050700080507000800
:1000B00005070008050700080507000805070008F0
:1000C00005070008050700080507000805070008E0
:1000D00005070008050700080507000805070008D0
:1000E00005070008050700080000000005070008D4
:1000F00005070008050700080507000805070008B0
:10010000050700080507000805070008050700089F
:10011000050700080507000805070008050700088F
:10012000050700080507000805070008050700087F
:1001300010B5054C237833B9044B13B10448AFF321
:1001400000800123237010BD00000020000000008B
:100150005007000808B5034B1BB103490348AFF330
:10016000008008BD000000000400002050070008C7
:1001700090B484B000AF0446084611461A462346A0
:10018000FB800346BB800B467B8013463B80BB88CD
:100190007B8100233B81BB88072B04D97B89083BEB
:1001A0007B8101233B81FB88012B0DD1274B1B68F1
:1001B000264A43F0040313603B899B0003F180430C
:1001C00003F58433FB6020E0FB88022B0DD11F4B2D
:1001D0001B681E4A43F0080313603B899B0003F130
:1001E000804303F58633FB600FE0FB88032B0CD1C3
:1001F000164B1B68154A43F0100313603B899B00A4
:1002000003F1804303F58833FB60FB681B687A8940
:1002100092000F2101FA02F2D2431A40FB681A60E1
:10022000FB681B6879887A899200914038887A89BE
:100230009200023200FA02F20A431A43FB681A6083
:1002400000BF1037BD4690BC704700BF1810024079
:1002500080B485B000AF0346FB800B46BB801346DD
:100260007B800323BB60FB88012B07D1BB689B000D
:1002700003F1804303F58433FB6014E0FB88022B19
:1002800007D1BB689B0003F1804303F58633FB6015
:1002900009E0FB88032B06D1BB689B0003F1804378
:1002A00003F58833FB607B88002B09D0FB681B6853
:1002B0007988BA8801FA02F21A43FB681A6009E0E9
:1002C000FB681B68BA88012101FA02F2D2431A4086
:1002D000FB681A6000BF1437BD4680BC704780B50C
:1002E00082B000AF03460A46FB801346BB80B98844
:1002F000F88800230322FFF73BFF00BF0837BD4605
:1003000080BD000080B500AF054B5B69044A43F037
:1003100001035361322000F07DF900BF80BD00BFB2
:100320000004014080B584B000AF03460A46FB716B
:100330001346BB71FB79FB7308E0FB7B9BB219464C
:100340000120FFF7CCFFFB7B0133FB73FA7BBB790A
:100350009A42F2D300BF00BF1037BD4680BD80B5C2
:1003600082B000AF0346FB71FB799BB21A460821AD
:100370000120FFF76DFF00BF0837BD4680BD80B587
:1003800082B000AF0346FB71FB799BB21A4609218C
:100390000120FFF75DFF00BF0837BD4680BD80B577
:1003A00082B000AF0346FB71FB799BB21A460A216B
:1003B0000120FFF74DFF00BF0837BD4680BD00009C
:1003C00080B582B000AF0346FB710B210020FFF720
:1003D000A9FF0120FFF7C3FF0020FFF7D0FF0A208D
:1003E00000F002F90120FFF7DAFF052000F0FCF829
:1003F0000A4BDB68094A03F47F43D360074BDA6892
:10040000FB7906491343CB600A2000F0EDF8002089
:10041000FFF7C5FF00BF0837BD4680BD000801409B
:1004200080B582B000AF0346FB710B210020FFF7BF
:1004300079FF0020FFF793FF0020FFF7A0FF0A20BD
:1004400000F0D2F80120FFF7AAFF052000F0CCF859
:100450000A4BDB68094A03F47F43D360074BDA6831
:10046000FB7906491343CB600A2000F0BDF8002059
:10047000FFF795FF00BF0837BD4680BD000801406B
:1004800080B500AF0B210020FFF74CFF142000F0D7
:10049000C1F83C20FFF7C4FF052000F0BBF80C209A
:1004A000FFF7BEFF052000F0B5F80120FFF7B8FF09
:1004B000052000F0AFF80220FFF7B2FF052000F0A2
:1004C000A9F800BF80BD80B584B000AF786000237C
:1004D000FB600CE0FB687A6813441B781846FFF752
:1004E0006FFFFB680133FB60642000F07DF8FB6860
:1004F0007A6813441B78002BECD100BF00BF103783
:10050000BD4680BD80B584B000AF03463A60FB7144
:100510000B46BB710023FB81FB79012B02D1002329
:10052000FB8104E0FB79022B01D14023FB81FB8995
:10053000DAB2BB791344DBB2803BDBB21846FFF77B
:100540006FFF642000F050F83868FFF7BCFF00BF71
:100550001037BD4680BD000080B400AF204B1B6843
:100560001F4A43F48033136000BF1D4B1B6803F424
:100570000033002BF9D01A4B5B68194A43F0010392
:10058000536000BF164B5B6803F00403002BF9D0E7
:10059000134B134A5B685360114B114A5B685360FD
:1005A0000F4B9B690E4A43F4006393610D4B4FF66A
:1005B000FE72DA620B4B07229A620A4B1B68094AE9
:1005C00043F00103136000BF064B1B6903F00103F6
:1005D000002BF9D000BF00BFBD4680BC704700BFF4
:1005E00000100240002C014080B483B000AF0346ED
:1005F000FB80074B00225A6200BF054B5A6AFB88FA
:100600009A42FAD300BF00BF0C37BD4680BC70478A
:10061000002C014080B584B000AF0346FB8000236E
:10062000FB8106E04FF47A70FFF7DEFFFB890133B0
:10063000FB81FA89FB889A42F4D300BF00BF1037D0
:10064000BD4680BD80B500AFFFF786FF00230322C3
:100650000D210320FFF78CFD01220D210320FFF760
:10066000F7FDFFF70DFF124A00210120FFF74AFFB7
:100670001C20FFF7D5FE0520FFF7CCFF1C20FFF75D
:10068000CFFE0520FFF7C6FF1C20FFF7C9FE05209F
:10069000FFF7C0FF1C20FFF7C3FE0520FFF7BAFFDE
:1006A0001C20FFF7BDFE0520FFF7B4FFFEE700BFEB
:1006B000680700080D488546AFF300800C480D49D7
:1006C0000D4A002302E0D458C4500433C4188C42AD
:1006D000F9D30A4A0A4C002301E013600432A24213
:1006E000FBD300F011F8FFF7ADFFFEE70028002074
:1006F000000000200000002080070008000000200B
:100700001C000020FEE7000070B500260C4D0D4CCB
:10071000641BA410A64209D100F01AF800260A4D65
:100720000A4C641BA410A64205D170BD55F8043BC9
:1007300098470136EEE755F8043B98470136F2E753
:100740007807000878070008780700087C07000889
:10075000F8B500BFF8BC08BC9E467047F8B500BFAE
:08076000F8BC08BC9E4670477E
:1007680074616E2064657020747261690000000015
:04077800550100081F
:04077C00310100083F
:04000005080006B534
:00000001FF
