:020000040800F2
:1000000000280020C511000815120008151200086C
:100010001512000815120008151200080000000053
:1000200000000000000000000000000015120008A1
:10003000151200080000000015120008B111000898
:1000400015120008151200081512000815120008F4
:100050001512000815120008CD0B00081512000833
:1000600015120008151200081512000815120008D4
:1000700015120008151200081512000815120008C4
:1000800015120008151200081512000815120008B4
:1000900015120008151200081512000815120008A4
:1000A0001512000815120008151200081512000894
:1000B0001512000815120008151200081512000884
:1000C0001512000815120008151200081512000874
:1000D00015120008991100081512000815120008E1
:1000E0001512000815120008000000001512000883
:1000F0001512000815120008151200081512000844
:100100001512000815120008151200081512000833
:100110001512000815120008151200081512000823
:100120001512000815120008151200081512000813
:1001300010B5054C237833B9044B13B10448AFF321
:1001400000800123237010BD0C000020000000007F
:100150006012000808B5034B1BB103490348AFF315
:10016000008008BD000000001000002060120008A0
:1001700081F0004102E000BF83F0004330B54FEA58
:1001800041044FEA430594EA050F08BF90EA020FC5
:100190001FBF54EA000C55EA020C7FEA645C7FEA58
:1001A000655C00F0E2804FEA5454D4EB5555B8BF7B
:1001B0006D420CDD2C4480EA020281EA030382EAEC
:1001C000000083EA010180EA020281EA0303362D7E
:1001D00088BF30BD11F0004F4FEA01314FF4801C51
:1001E0004CEA113102D0404261EB410113F0004F63
:1001F0004FEA03334CEA133302D0524263EB43031A
:1002000094EA050F00F0A780A4F10104D5F1200EB7
:100210000DDB02FA0EFC22FA05F2801841F1000112
:1002200003FA0EF2801843FA05F359410EE0A5F1E6
:1002300020050EF1200E012A03FA0EFC28BF4CF017
:10024000020C43FA05F3C01851EBE37101F00045CD
:1002500007D54FF0000EDCF1000C7EEB00006EEBDA
:100260000101B1F5801F1BD3B1F5001F0CD3490864
:100270005FEA30004FEA3C0C04F101044FEA4452BB
:1002800012F5800F80F09A80BCF1004F08BF5FEA42
:10029000500C50F1000041EB045141EA050130BD22
:1002A0005FEA4C0C404141EB0101013C28BFB1F534
:1002B000801FE9D291F0000F04BF01460020B1FA7F
:1002C00081F308BF2033A3F10B03B3F120020CDA52
:1002D0000C3208DD02F1140CC2F10C0201FA0CF030
:1002E00021FA02F10CE002F11402D8BFC2F1200C95
:1002F00001FA02F120FA0CFCDCBF41EA0C0190404B
:10030000E41AA2BF01EB0451294330BD6FEA040493
:100310001F3C1CDA0C340EDC04F11404C4F120027E
:1003200020FA04F001FA02F340EA030021FA04F390
:1003300045EA030130BDC4F10C04C4F1200220FAE7
:1003400002F001FA04F340EA0300294630BD21FA25
:1003500004F0294630BD94F0000F83F4801306BFEB
:1003600081F480110134013D4EE77FEA645C18BFDF
:100370007FEA655C29D094EA050F08BF90EA020F76
:1003800005D054EA000C04BF1946104630BD91EA6E
:10039000030F1EBF0021002030BD5FEA545C05D171
:1003A0004000494128BF41F0004130BD14F58004B0
:1003B0003CBF01F5801130BD01F0004545F0FE4124
:1003C00041F470014FF0000030BD7FEA645C1ABF59
:1003D000194610467FEA655C1CBF0B46024650EA90
:1003E000013406BF52EA033591EA030F41F40021BC
:1003F00030BD00BF90F0000F04BF0021704730B542
:100400004FF4806404F132044FF000054FF0000116
:1004100050E700BF90F0000F04BF0021704730B5D7
:100420004FF4806404F1320410F0004548BF4042AC
:100430004FF000013EE700BF42004FEAE2014FEA01
:1004400031014FEA02701FBF12F07F4393F07F4FDC
:1004500081F06051704732F07F4208BF704793F0DF
:100460007F4F04BF41F40021704730B54FF46074F2
:1004700001F0004521F000411CE700BF50EA0102F5
:1004800008BF704730B54FF000050AE050EA01029E
:1004900008BF704730B511F0004502D5404261EB0E
:1004A00041014FF4806404F132045FEA915C3FF44F
:1004B000D8AE4FF003025FEADC0C18BF03325FEAEC
:1004C000DC0C18BF033202EBDC02C2F1200300FA9D
:1004D00003FC20FA02F001FA03FE40EA0E0021FAC2
:1004E00002F11444BDE600BF70B54FF0FF0C4CF4B0
:1004F000E06C1CEA11541DBF1CEA135594EA0C0F62
:1005000095EA0C0F00F0DEF82C4481EA030621EA9C
:100510004C5123EA4C5350EA013518BF52EA0335D7
:1005200041F4801143F4801338D0A0FB02CE4FF089
:100530000005E1FB02E506F00042E0FB03E54FF0B9
:100540000006E1FB03569CF0000F18BF4EF0010EB1
:10055000A4F1FF04B6F5007F64F5407404D25FEAAD
:100560004E0E6D4146EB060642EAC62141EA555160
:100570004FEAC52040EA5E504FEACE2EB4F1FD0CA2
:1005800088BFBCF5E06F1ED8BEF1004F08BF5FEA20
:10059000500E50F1000041EB045170BD06F00046D2
:1005A00046EA010140EA020081EA0301B4EB5C047F
:1005B000C2BFD4EB0C0541EA045170BD41F4801177
:1005C0004FF0000E013C00F3AB8014F1360FDEBF9C
:1005D000002001F0004170BDC4F10004203C35DA78
:1005E0000C341BDC04F11404C4F1200500FA05F3FB
:1005F00020FA04F001FA05F240EA020001F000429C
:1006000021F0004110EBD37021FA04F642EB060111
:100610005EEA430E08BF20EAD37070BDC4F10C043B
:10062000C4F1200500FA04F320FA05F001FA04F2FF
:1006300040EA020001F0004110EBD37041F10001EB
:100640005EEA430E08BF20EAD37070BDC4F12005F6
:1006500000FA05F24EEA020E20FA04F301FA05F25E
:1006600043EA020321FA04F001F0004121FA04F206
:1006700020EA020000EBD3705EEA430E08BF20EAD6
:10068000D37070BD94F0000F0FD101F00046400010
:1006900041EB010111F4801F08BF013CF7D041EA92
:1006A000060195F0000F18BF704703F00046520096
:1006B00043EB030313F4801F08BF013DF7D043EA67
:1006C0000603704794EA0C0F0CEA135518BF95EA1D
:1006D0000C0F0CD050EA410618BF52EA4306D1D1A4
:1006E00081EA030101F000414FF0000070BD50EAC3
:1006F000410606BF1046194652EA430619D094EA4D
:100700000C0F02D150EA013613D195EA0C0F05D136
:1007100052EA03361CBF104619460AD181EA03018A
:1007200001F0004141F0FE4141F470014FF0000042
:1007300070BD41F0FE4141F4780170BD70B54FF0DD
:10074000FF0C4CF4E06C1CEA11541DBF1CEA13555D
:1007500094EA0C0F95EA0C0F00F0A7F8A4EB05043F
:1007600081EA030E52EA03354FEA013100F0888036
:100770004FEA03334FF0805545EA131343EA1263FF
:100780004FEA022245EA111545EA10654FEA0026B4
:100790000EF000419D4208BF964244F1FD0404F56D
:1007A000407402D25B084FEA3202B61A65EB0305C9
:1007B0005B084FEA32024FF480104FF4002CB6EB86
:1007C000020E75EB030E22BFB61A754640EA0C0006
:1007D0005B084FEA3202B6EB020E75EB030E22BF46
:1007E000B61A754640EA5C005B084FEA3202B6EB87
:1007F000020E75EB030E22BFB61A754640EA9C0046
:100800005B084FEA3202B6EB020E75EB030E22BF15
:10081000B61A754640EADC0055EA060E18D04FEAD3
:10082000051545EA16754FEA06164FEAC30343EA73
:1008300052734FEAC2025FEA1C1CC0D111F4801F40
:100840000BD141EA00014FF000004FF0004CB6E739
:1008500011F4801F04BF01430020B4F1FD0C88BFD8
:10086000BCF5E06F3FF6AFAEB5EB030C04BFB6EBE3
:10087000020C5FEA500C50F1000041EB045170BDD6
:100880000EF0004E4EEA113114EB5C04C2BFD4EB03
:100890000C0541EA045170BD41F480114FF0000E87
:1008A000013C90E645EA060E8DE60CEA135594EA03
:1008B0000C0F08BF95EA0C0F3FF43BAF94EA0C0F06
:1008C0000AD150EA01347FF434AF95EA0C0F7FF47B
:1008D00025AF104619462CE795EA0C0F06D152EACF
:1008E00003353FF4FDAE1046194622E750EA4106B3
:1008F00018BF52EA43067FF4C5AE50EA41047FF4C4
:100900000DAF52EA43057FF4EBAE12E74FF0FF3C28
:1009100006E000BF4FF0010C02E000BF4FF0010CF9
:100920004DF804CD4FEA410C7FEA6C5C4FEA430C72
:1009300018BF7FEA6C5C1BD001B050EA410C0CBFC1
:1009400052EA430C91EA030F02BF90EA020F002023
:10095000704710F1000F91EA030F58BF994208BF8A
:1009600090422CBFD8176FEAE37040F00100704747
:100970004FEA410C7FEA6C5C02D150EA013C07D19E
:100980004FEA430C7FEA6C5CD6D152EA033CD3D0E9
:100990005DF8040B704700BF8446104662468C46E3
:1009A0001946634600E000BF01B5FFF7B7FF002816
:1009B00048BF10F1000F01BD4DF808EDFFF7F4FF3F
:1009C0000CBF012000205DF808FB00BF4DF808EDCA
:1009D000FFF7EAFF34BF012000205DF808FB00BFED
:1009E0004DF808EDFFF7E0FF94BF012000205DF80F
:1009F00008FB00BF4DF808EDFFF7CEFF94BF0120C4
:100A000000205DF808FB00BF4DF808EDFFF7C4FFBC
:100A100034BF012000205DF808FB00BF4A0011D25E
:100A200012F5001211D20DD56FF47873B3EB625248
:100A30000ED44FEAC12343F0004343EA505323FA54
:100A400002F070474FF00000704750EA013002D1C9
:100A50004FF0FF3070474FF00000704790B484B003
:100A600000AF0446084611461A462346FB8003465B
:100A7000BB800B467B8013463B80BB887B81002379
:100A80003B81BB88072B04D97B89083B7B810123F1
:100A90003B81FB88012B0DD1274B1B68264A43F075
:100AA000040313603B899B0003F1804303F5843307
:100AB000FB6020E0FB88022B0DD11F4B1B681E4AF8
:100AC00043F0080313603B899B0003F1804303F567
:100AD0008633FB600FE0FB88032B0CD1164B1B68A1
:100AE000154A43F0100313603B899B0003F18043D8
:100AF00003F58833FB60FB681B687A8992000F213D
:100B000001FA02F2D2431A40FB681A60FB681B68C4
:100B100079887A899200914038887A8992000232E5
:100B200000FA02F20A431A43FB681A6000BF10374A
:100B3000BD4690BC704700BF1810024080B485B01D
:100B400000AF0346FB800B46BB8013467B8003232C
:100B5000BB60FB88012B07D1BB689B0003F180437E
:100B600003F58433FB6014E0FB88022B07D1BB68DC
:100B70009B0003F1804303F58633FB6009E0FB88AB
:100B8000032B06D1BB689B0003F1804303F5883338
:100B9000FB607B88002B09D0FB681B687988BA88CA
:100BA00001FA02F21A43FB681A6009E0FB681B684D
:100BB000BA88012101FA02F2D2431A40FB681A6096
:100BC00000BF1437BD4680BC7047000080B500AF41
:100BD000054B5B69044A43F001035361322000F086
:100BE00063F800BF80BD00BF0004014080B400AFC7
:100BF000204B1B681F4A43F48033136000BF1D4B1A
:100C00001B6803F40033002BF9D01A4B5B68194AB8
:100C100043F00103536000BF164B5B6803F004030D
:100C2000002BF9D0134B134A5B685360114B114AE8
:100C30005B6853600F4B9B690E4A43F400639361FA
:100C40000D4B4FF6FE72DA620B4B07229A620A4B8B
:100C50001B68094A43F00103136000BF064B1B6980
:100C600003F00103002BF9D000BF00BFBD4680BCDC
:100C7000704700BF00100240002C014080B483B0D8
:100C800000AF0346FB80074B00225A6200BF054BB2
:100C90005A6AFB889A42FAD300BF00BF0C37BD46A0
:100CA00080BC7047002C014080B584B000AF034683
:100CB000FB800023FB8106E04FF47A70FFF7DEFF34
:100CC000FB890133FB81FA89FB889A42F4D300BF88
:100CD00000BF1037BD4680BD80B483B000AF7860E0
:100CE0007B680A331B88002B0DD17B6802330122FD
:100CF0001A807B6800221A80084B1B68074A23F081
:100D00000203136005E07B680A331A88013A92B245
:100D10001A8000BF0C37BD4680BC704710E000E071
:100D200080B584B000AF03460A46FB711346BB8012
:100D3000314B9B69304A43F001039361BB881846ED
:100D400000F062F8F860FB79012B27D12A4B9B69F0
:100D5000294A43F48043936102230322092101209D
:100D6000FFF77CFE022300220A210120FFF776FE16
:100D7000224AFB689360214BDB68204A43F008035A
:100D8000D3601E4BDB681D4A43F00403D3601B4B4A
:100D9000DB681A4A43F40053D36029E0FB79022B45
:100DA00026D1154BDB69144A43F40033D361022387
:100DB000032202210120FFF751FE0223002203211A
:100DC0000120FFF74BFE0E4AFB6893600C4BDB687B
:100DD0000B4A43F00803D360094BDB68084A43F031
:100DE0000403D360064BDB68054A43F40053D36029
:100DF00000BF1037BD4680BD0010024000380140E2
:100E00000044004000000000B0B58AB000AF786038
:100E10003B4B7B6238A3D3E90023C7E906234FF09D
:100E20000002384BC7E904237B681B017A6AB2FBD6
:100E3000F3F37B627B681B011846FFF7DBFA02467F
:100E40000B46D7E90601FFF779FC02460B4614462C
:100E50001D46786AFFF7CEFA02460B462046294621
:100E6000FFF78AF902460B46104619464FF000027A
:100E7000254BFFF739FB02460B46C7E90623D7E9A6
:100E80000601FFF7CBFD03463B62386AFFF7B2FA73
:100E900002460B46D7E90601FFF76EF902460B46FC
:100EA000104619464FF00002184BFFF71DFB024693
:100EB0000B46C7E904234FF00002154BD7E90401A4
:100EC000FFF7A2FD0346002B0AD03B6A01333B62C9
:100ED0003B6A102B04D100233B627B6A01337B62A7
:100EE0007B6A1B01FB60FA683B6A1344FB60FB688A
:100EF00018462837BD46B0BD0000000080845E4122
:100F000000127A000000F03F00003040000059401D
:100F10000000494080B483B000AF0346FB71104B22
:100F20009B6903F48043002B0AD000BF0D4B1B6864
:100F300003F04003002BF9D00A4AFB79536009E023
:100F400000BF094B1B6803F04003002BF9D0064A91
:100F5000FB79536000BF0C37BD4680BC704700BFB3
:100F600000100240003801400044004080B483B0CB
:100F700000AF104B9B6903F48043002B0AD000BFE5
:100F80000D4B1B6803F02003002BF9D00A4B5B6864
:100F9000FB7109E000BF094B1B6803F02003002B25
:100FA000F9D0064B5B68FB71FB7918460C37BD46E0
:100FB00080BC7047001002400038014000440040EF
:100FC00080B582B000AF786006E07B685A1C7A601A
:100FD0001B781846FFF79EFF7B681B78002BF4D127
:100FE00000BF00BF0837BD4680BD000080B483B09D
:100FF00000AF0346FB7197F90730002B0BDBFB7941
:1010000003F01F02064997F907305B09012000FA37
:1010100002F241F8232000BF0C37BD4680BC704768
:1010200000E100E080B582B000AF0346FB71FB79C0
:10103000012B0CD172B600BF0F4BDB680E4A43F098
:101040002003D3602520FFF7D1FF62B60FE0FB79C4
:10105000022B0CD172B600BF084BDB68074A43F085
:101060002003D3602620FFF7C1FF62B600BF00BF98
:101070000837BD4680BD00BF003801400044004035
:1010800090B583B000AF786039607B681B881A46E2
:101090003B689C18FFF76AFF034623707B680433A4
:1010A0001B88002B21D17B681B881A463B681344A0
:1010B0001B789AB27B6806331B889A420ED17B68F4
:1010C0001B881A463B68134400221A707B68002272
:1010D0001A807B68023301221A8031E07B681B880A
:1010E00001339AB27B681A802AE07B681B8801333F
:1010F0009AB27B681A807B680A337A6812891A80F0
:1011000072B600BF104B00221A600F4B41F63F72BF
:101110005A600D4B00229A600B4B1B680A4A43F041
:1011200004031360084B1B68074A43F00203136073
:10113000054B1B68044A43F00103136062B600BF0D
:1011400000BF0C37BD4690BD10E000E080B500AF99
:10115000FFF74CFD002303220D210320FFF77EFC47
:1011600001220D210320FFF7E9FC4FF41651012065
:10117000FFF7D6FD0120FFF755FF054B5B88012BDC
:10118000FBD10448FFF71CFF014B00225A80F4E713
:10119000000000202800002080B500AF024903486D
:1011A000FFF76EFF00BF80BD280000200000002078
:1011B00080B500AF0248FFF78FFD00BF80BD00BFC4
:1011C000000000200D488546AFF300800C480D4913
:1011D0000D4A002302E0D458C4500433C4188C4292
:1011E000F9D30A4A0A4C002301E013600432A242F8
:1011F000FBD300F011F8FFF7A9FFFEE7002800205D
:10120000000000200C000020801200080C000020CC
:1012100028010020FEE7000070B500260C4D0D4CA3
:10122000641BA410A64209D100F01AF800260A4D4A
:101230000A4C641BA410A64205D170BD55F8043BAE
:1012400098470136EEE755F8043B98470136F2E738
:101250007812000878120008781200087C12000842
:10126000F8B500BFF8BC08BC9E467047F8B500BF93
:08127000F8BC08BC9E46704763
:041278005501000814
:04127C003101000834
:0C1280000000000001007A00881300004C
:04000005080011C519
:00000001FF
