:020000040800F2
:10000000002800203105000881050008810500084E
:100010008105000881050008810500080000000036
:100020000000000000000000000000008105000842
:100030008105000800000000810500088105000816
:100040008105000881050008810500088105000878
:100050008105000881050008E1020008810500080B
:100060008105000881050008810500088105000858
:100070008105000881050008810500088105000848
:100080008105000881050008810500088105000838
:100090008105000881050008810500088105000828
:1000A0008105000881050008810500088105000818
:1000B0008105000881050008810500088105000808
:1000C00081050008810500088105000881050008F8
:1000D00081050008810500088105000881050008E8
:1000E0008105000881050008000000008105000866
:1000F00081050008810500088105000881050008C8
:1001000081050008810500088105000881050008B7
:1001100081050008810500088105000881050008A7
:100120008105000881050008810500088105000897
:1001300010B5054C237833B9044B13B10448AFF321
:1001400000800123237010BD00000020000000008B
:10015000CC05000808B5034B1BB103490348AFF3B6
:10016000008008BD0000000004000020CC0500084D
:1001700090B484B000AF0446084611461A462346A0
:10018000FB800346BB800B467B8013463B80BB88CD
:100190007B8100233B81BB88072B04D97B89083BEB
:1001A0007B8101233B81FB88012B0DD1274B1B68F1
:1001B000264A43F0040313603B899B0003F180430C
:1001C00003F58433FB6020E0FB88022B0DD11F4B2D
:1001D0001B681E4A43F0080313603B899B0003F130
:1001E000804303F58633FB600FE0FB88032B0CD1C3
:1001F000164B1B68154A43F0100313603B899B00A4
:1002000003F1804303F58833FB60FB681B687A8940
:1002100092000F2101FA02F2D2431A40FB681A60E1
:10022000FB681B6879887A899200914038887A89BE
:100230009200023200FA02F20A431A43FB681A6083
:1002400000BF1037BD4690BC704700BF1810024079
:1002500080B485B000AF0346FB800B46BB801346DD
:100260007B800323BB60FB88012B07D1BB689B000D
:1002700003F1804303F58433FB6014E0FB88022B19
:1002800007D1BB689B0003F1804303F58633FB6015
:1002900009E0FB88032B06D1BB689B0003F1804378
:1002A00003F58833FB607B88002B09D0FB681B6853
:1002B0007988BA8801FA02F21A43FB681A6009E0E9
:1002C000FB681B68BA88012101FA02F2D2431A4086
:1002D000FB681A6000BF1437BD4680BC7047000041
:1002E00080B500AF054B5B69044A43F001035361DD
:1002F000322000F0EBF800BF80BD00BF00040140D9
:1003000080B582B000AF0346FB80234B9B69224A35
:1003100043F001039361FB88012B38D11E4B9B698D
:100320001D4A43F4805393610023032204210120DA
:10033000FFF71EFF0223032205210120FFF718FF0C
:100340000223002206210120FFF712FF02230322CD
:1003500007210120FFF70CFF104B1B680F4A43F0E9
:10036000040313600D4B0D4A1B6813600B4B5B6855
:100370000A4A43F004035360084B1B68074A43F0E2
:1003800040031360012204210120FFF761FF00BF39
:100390000837BD4680BD00BF00100240003001405C
:1003A00080B582B000AF0346FB80FB88012B24D1CF
:1003B000002204210120FFF74BFF00BF114B9B6877
:1003C00003F08003002BF9D10F4B1A780D4BDA6044
:1003D00000BF0C4B9B6803F00103002BF9D0094BC5
:1003E000DB68DAB2094B1A70084B1A78064B1A70A0
:1003F000012204210120FFF72BFF00BF0837BD4673
:1004000080BD00BF003001401C0000201D00002006
:1004100080B400AF204B1B681F4A43F48033136045
:1004200000BF1D4B1B6803F40033002BF9D01A4B9F
:100430005B68194A43F00103536000BF164B5B68C9
:1004400003F00403002BF9D0134B134A5B6853608D
:10045000114B114A5B6853600F4B9B690E4A43F482
:10046000006393610D4B4FF6FE72DA620B4B07226D
:100470009A620A4B1B68094A43F00103136000BFEC
:10048000064B1B6903F00103002BF9D000BF00BF2E
:10049000BD4680BC704700BF00100240002C0140E8
:1004A00080B483B000AF0346FB80074B00225A6242
:1004B00000BF054B5A6AFB889A42FAD300BF00BFBF
:1004C0000C37BD4680BC7047002C014080B584B01D
:1004D00000AF0346FB800023FB8106E04FF47A70F7
:1004E000FFF7DEFFFB890133FB81FA89FB889A4223
:1004F000F4D300BF00BF1037BD4680BD80B500AF4C
:10050000FFF786FF002303220D210320FFF730FEB3
:1005100001220D210320FFF79BFE0120FFF7F0FED3
:100520004FF47A70FFF7D2FF0120FFF739FFF7E7AA
:100530000D488546AFF300800C480D490D4A002355
:1005400002E0D458C4500433C4188C42F9D30A4A88
:100550000A4C002301E013600432A242FBD300F0F6
:1005600011F8FFF7CBFFFEE7002800200000002075
:1005700000000020EC050008000000202000002002
:10058000FEE7000070B500260C4D0D4C641BA41056
:10059000A64209D100F01AF800260A4D0A4C641B45
:1005A000A410A64205D170BD55F8043B984701360A
:1005B000EEE755F8043B98470136F2E7E4050008FA
:1005C000E4050008E4050008E8050008F8B500BFE8
:1005D000F8BC08BC9E467047F8B500BFF8BC08BC24
:0405E0009E4670477C
:0405E40055010008B5
:0405E80031010008D5
:0400000508000531B9
:00000001FF
